:100000000A128A1110280800FE00030E831203133F
:10001000C4000A08C5007F08C6000A128A15002815
:100020000A128A11132883135E30FD001130FE007E
:100030003E30FF00543084000A168A11B3220A129F
:100040008A118317C0308400DA300A168A116C21B5
:100050000A128A111030840058300A168A116C2155
:100060000A128A1183134930840054300A168A1107
:100070006C210A128A1183010A168A11C92E83166D
:1000800003132C08B6008030B6052C08B1003107E8
:10009000BC00AB1F4C284D284E283C143C080319CB
:1000A0005228532862283C0A031D572858286028E4
:1000B0000030AC000030AB000030AA000030A900D6
:1000C000AB176A280030AC000030AB000030AA004B
:1000D0000030A90030088039B6063008B100310779
:1000E000BB00AF1F7428752876283B143B08031902
:1000F0007A287B288A283B0A031D7F2880288828A5
:100100000030B0000030AF000030AE000030AD0075
:10011000AF1792280030B0000030AF000030AE00C2
:100120000030AD003B080319962897289C283C080E
:10013000031D9B289C28A5280030AC000030AB0094
:100140000030AA000030A900802B2908A0002F0849
:100150000A168A11E3230A128A118316031321084F
:10016000C2002008C1004108B100B201B301B401CE
:100170003408BA003308B9003208B8003108B700B3
:100180004208B100B201B301B4013408C000330821
:10019000BF003208BE003108BD002A08A0002E08AA
:1001A0000A168A11E3230A128A11831603132108FF
:1001B000C2002008C1004108B100B201B301B4017E
:1001C0003108B707320803110318013E0319E92863
:1001D000B807330803110318013E0319F028B907C3
:1001E000340803110318013E0319F728BA0742081F
:1001F000B100B201B301B4013108BD0732080311E7
:100200000318013E03190529BE073308031103181B
:10021000013E03190C29BF07340803110318013EDE
:1002200003191329C0072B08A0002D080A168A11EC
:10023000E3230A128A11831603132108C20020083F
:10024000C1004108B100B201B301B4013108B707E0
:10025000320803110318013E03192F29B807330888
:1002600003110318013E03193629B9073408031195
:100270000318013E03193D29BA074208B100B20133
:10028000B301B4013108BD07320803110318013E60
:1002900003194B29BE07330803110318013E031944
:1002A0005229BF07340803110318013E03195929C5
:1002B000C0070830B1000310B70DB80DB90DBA0D65
:1002C000B10B5B292A08A0002D080A168A11E32326
:1002D0000A128A11831603132108C2002008C100E4
:1002E0004108B1004208B200B301B4013108B707B8
:1002F000320803110318013E03197F29B807330898
:1003000003110318013E03198629B90734080311A4
:100310000318013E03198D29BA072908A0002E08E9
:100320000A168A11E3230A128A118316031321087D
:10033000C2002008C1004108B1004208B200B30168
:10034000B4013108B707320803110318013E03193D
:10035000AA29B807330803110318013E0319B1296C
:10036000B907340803110318013E0319B829BA0765
:100370000830B1000310B70DB80DB90DBA0DB10BAF
:10038000BA292908A0002D080A168A11E3230A12A7
:100390008A11831603132108C2002008C1004108F6
:1003A000B1004208B200B301B4013108B707320806
:1003B00003110318013E0319DE29B807330803119E
:1003C0000318013E0319E529B9073408031103187E
:1003D000013E0319EC29BA072A08A0002F080A16C3
:1003E0008A11E3230A128A11831603132108C2001B
:1003F0002008C1004108B1004208B200B301B401B5
:100400003108BD07320803110318013E0319092AF8
:10041000BE07330803110318013E0319102ABF0752
:10042000340803110318013E0319172AC0072B08CB
:10043000A0002E080A168A11E3230A128A118316D5
:1004400003132108C2002008C1004108B10042087E
:10045000B200B301B4013108BD073208031103181B
:10046000013E0319342ABE07330803110318013E65
:1004700003193B2ABF07340803110318013E03196F
:10048000422AC0072B08A0002F080A168A11E3236E
:100490000A128A11831603132108C2002008C10022
:1004A0004108B1004208B200B301B40108300310A2
:1004B000B10DB20DB30DB40DFF3E031D572A310827
:1004C000BD07320803110318013E0319682ABE074D
:1004D000330803110318013E03196F2ABF073408BC
:1004E00003110318013E0319762AC0073708B1002B
:1004F0003808B2003908B3003A08B40018300310C5
:10050000B40CB30CB20CB10CFF3E031D7F2A3108B2
:10051000BD07320803110318013E0319902ABE07D4
:10052000330803110318013E0319972ABF07340843
:1005300003110318013E03199E2AC0070830B100B9
:100540000310B70DB80DB90DBA0DB10BA02A3C08B8
:100550003B07B100B201B20D3108823EC100320842
:100560000318013EFF3EC200D22A0130B100031041
:10057000BD0DBE0DBF0DC00DB10BB72ABA1FC12AEC
:10058000C22AC32A3D140130B1000310B70DB80DC3
:10059000B90DBA0DB10BC52AFF30C1070318C20A45
:1005A000FF30C207BF1FD52AD62AB52ABB01BA1F02
:1005B000DA2ADB2AF72AFF303705B100FF30380589
:1005C000B200FF303905B3007F303A05B40034087B
:1005D0003304320431040319EE2AEF2AF22A0130DF
:1005E000BB00F72A3D1CF52AF62AF72AEF2A3B081A
:1005F0000319FB2AFC2A2D2B0130BD0700300318FC
:100600000130BE07003003180130BF070030031867
:100610000130C007401C0D2B0E2B2D2B3D08B100C7
:100620003E08B2003F08B3004008B4000130B500F6
:10063000340DB40CB30CB20CB10CB50B182B340840
:10064000C0003308BF003208BE003108BD000130D1
:10065000C1070318C20A0030C2074208803AFF00EF
:1006600080307F02031D362BFF304102031C392BE3
:100670003A2B452B7F3083160313C0008030BF0018
:100680000030BE000030BD00762B831603134208F5
:10069000803AFF0080307F02031D502B0130410261
:1006A0000318532B542B602B003083160313C00008
:1006B0000030BF000030BE000030BD00B601762B18
:1006C000831603134108BC00FF30BD05FF30BE0593
:1006D0007F30BF050030C0053C1C6F2B702B712B89
:1006E000BF173C08B1000310310CC0003608C0042D
:1006F0004008AC003F08AB003E08AA003D08A90036
:1007000008008316031360088316031790008030D7
:100710009005831603136008E50065078316031729
:10072000920083160313DF1F962B972B9A2B8316A9
:10073000031712148316031712080319A02BA12BF9
:10074000B42B120A031DA52BA62BB02B0030831649
:100750000313E0000030DF000030DE000030DD0079
:100760000313DF17E001BE2B003083160313E000F4
:100770000030DF000030DE000030DD00640883164A
:100780000317910080309105110810060319C92B39
:10079000CA2BCB2B1017831603136408E5006507DB
:1007A00083160317910083160313E31FD82BD92B4D
:1007B000DC2B831603171114831603171108031972
:1007C000E22BE32BF62B110A031DE72BE82BF22B70
:1007D000003083160313E4000030E3000030E20031
:1007E0000030E1000313E317E401002C003083160E
:1007F0000313E4000030E3000030E2000030E100C9
:1008000083160317120811020318072C082C4E2C0C
:10081000101F0B2C0C2C0E2C80309006120893000D
:100820001108920013089100831603135D088316C4
:1008300003179300831603136108DD008316031763
:10084000130883160313E1005E0883160317930051
:10085000831603136208DE0083160317130883163A
:100860000313E2005F088316031793008316031334
:100870006308DF0083160317130883160313E300CE
:100880006008831603179300831603136408E000BF
:1008900083160317130883160313E4008316031744
:1008A0009301110883160313E500E6016608E800CA
:1008B000831603171208831603136502E700031C4F
:1008C000E8036808803AFF0080307F02031D6A2C2D
:1008D0001A306702031C6D2C6E2CB42C8316031384
:1008E00060085F045E045D04031D772C792C0130E1
:1008F0007A2C0030831603179300003083160313FD
:10090000E0000030DF000030DE000030DD00831644
:10091000031711089200BC2C131C8F2C902C9B2CBD
:10092000130883160313E5000310650C01388316C2
:10093000031793009D2C0310930C831603135D1C67
:10094000A22CA32CA62C8316031793170130031394
:10095000E500600DE00CDF0CDE0CDD0CE50BA92CD6
:10096000013083160317920783160317110812022A
:10097000031CBB2CBC2C8C2C101BBF2CC02C182D8A
:100980001208031DC42CC52CD02C00308316031371
:10099000E0000030DF000030DE000030DD00702EAF
:1009A000831603136108DD07620803110318013E73
:1009B0000319DB2CDE07630803110318013E03193A
:1009C000E22CDF07640803110318013E0319E92C28
:1009D000E007601CEC2CED2CDE2D83160317131C96
:1009E000F22CF32CFE2C130883160313E5000310DE
:1009F000650C0138831603179300002D0310930C28
:100A0000831603135D1C052D062D092D8316031770
:100A1000931701300313E500600DE00CDF0CDE0CD2
:100A2000DD0CE50B0C2D0130831603179207DE2D2C
:100A3000831603136008803AFF006408803A7F023F
:100A4000031D2C2D63085F02031D2C2D62085E021E
:100A5000031D2C2D61085D0203182F2D302D8B2DC9
:100A6000FF30E500FF30E600FF30E700FF30E80030
:100A70006108E9006208EA006308EB006408EC0022
:100A80005D08E9025E08031C5E0F472D482DEA024F
:100A90005F08031C5F0F4D2D4E2DEB026008031CF9
:100AA000600F532D542DEC026908E5076A080318FE
:100AB0006A0F5B2D5C2DE6076B0803186B0F612D29
:100AC000622DE7076C0803186C0AE8076808E00065
:100AD0006708DF006608DE006508DD0080308316E9
:100AE000031790061303FF3A93001308031D792D93
:100AF0007A2D992D013083160313DD07003003187A
:100B00000130DE07003003180130DF070030031822
:100B10000130E007992D6108DD026208031C620FB5
:100B2000DE026308031C630FDF026408031C640F0A
:100B3000E002031360085F045E045D04031DA12D41
:100B4000A22DD92D831603171308031DA82DA92D37
:100B5000D92D003083160313E0000030DF00003091
:100B6000DE000030DD00702E0130E5000310DD0DE9
:100B7000DE0DDF0DE00DE50BB62D83160317931F79
:100B8000C22DC32DC62D831603135D1483160317C0
:100B9000131CCB2DCC2DD02D0314130D9300D22D6F
:100BA0000310930D12080319D62DD72DD92D01301E
:100BB00092020313DF1FDD2DDE2DB42D83160317E4
:100BC0009101931FE42DE52DF72D13087F390319AB
:100BD000EA2DEB2DF02D0130831603179100F72D30
:100BE000831603135D1CF52DF62DF72DEB2D8316C3
:100BF000031711080319FD2DFE2D342E0130831625
:100C00000313DD07003003180130DE07003003183E
:100C10000130DF07003003180130E007601C112E9F
:100C2000122E342E5D08E5005E08E6005F08E7003E
:100C30006008E8000130E900680DE80CE70CE60CFC
:100C4000E50CE90B1C2E6808E0006708DF00660869
:100C5000DE006508DD0083160317120A0319312E22
:100C6000322E342E0130920783160317120A03190D
:100C70003A2E3B2E402E1208031D3F2E402E522EA0
:100C8000003083160313E0000030DF000030DE0088
:100C90000030DD00831603171208031D502E512E5D
:100CA000522E9001121C552E562E5A2E83160313C7
:100CB000DF175E2E7F3083160313DF0583160317BD
:100CC000120883160313E5000310650CE000831679
:100CD0000317901F6C2E6D2E702E83160313E017D2
:100CE0000800831603132F08840083130008B10043
:100CF000840A0008B200320883120313FF0083162F
:100D0000031331088400831203130A168A11002189
:100D10000A128A11253A031D8E2E8F2E832F8316D9
:100D200003132F088400013083138007840A0318FB
:100D3000800A83120313C901CA010030CF00FF30BB
:100D4000CB00FF30CC00831603132F08840000086B
:100D5000B600840A00088403B7003708831203131F
:100D6000FF008316031336088400831203130A1648
:100D70008A1100210A128A11643A0319C02EC12E69
:100D8000D72E83160313370883120313FF0083162D
:100D9000031336088400831203130A168A110021F4
:100DA0000A128A11693A031DD62ED72E782F831680
:100DB00003133008840083130008FF00023080070B
:100DC0007F0884000008B800840A0008B9000130D8
:100DD000B10031083607B3003708B2000318B20A71
:100DE000B11BB2033208B4002F088400330880001E
:100DF0003408840A800084032030BC00B91B012F12
:100E0000032F0130042F0030B5000130BC023C0834
:100E1000383E84000A30A0000030A1003908A30049
:100E20003808A2000A168A113B250A128A11831675
:100E300003132108A7002008A6000A168A119C2285
:100E40000A128A11831603132608303E8317800086
:100E50000A30A0000030A1003908A3003808A20021
:100E60000A168A11EE250A128A1183160313210825
:100E7000B9002008B800380839040319402F412F61
:100E8000462F3C08031D452F462F052F3C0803190C
:100E90004A2F4B2F712F350803194F2F502F712FC9
:100EA0000130BC023C08383E84002D30831780009E
:100EB000712F3C08383E840083170008B100B2014E
:100EC0003108A0003208A1002D08A2002E08A300BE
:100ED0000A128A157A200A128A1101308316031326
:100EE000BC0720303C06031D762F772F592FAE2FDD
:100EF000831603132F088400013083138007840AAC
:100F00000318800AAE2F831603132F08840083135F
:100F10000008B100840A0008B200320883120313EB
:100F2000FF008316031331088400831203130A168B
:100F30008A1100210A128A1183160313B300B40127
:100F40003308A0003408A1002D08A2002E08A30039
:100F50000A128A157A200A128A11782F080083163D
:100F60000313A401A501200821040319B82FB92FE8
:100F7000EE2F0130A600C52F01300310A00DA10DEA
:100F8000FF3E031DBD2F0130A607A11FC82FC92F8B
:100F9000BC2F01300310A40DA50DFF3E031DCA2F69
:100FA00021082302031DD62F20082202031CD92F5B
:100FB000DA2FE12F2008A2022108031CA303A302B9
:100FC000241401300310A10CA00CFF3E031DE22FDE
:100FD0000130A602031DED2FEE2FC92F2508A10019
:100FE0002408A000080001300A168A1156230A12AC
:100FF0008A11273083160313A600A60BFD2F0800C5
:101000000B1C032804286F28061C07280828192809
:10101000831603174408031D0E280F28192883126E
:1010200003138F018E011014013083160317C400BF
:101030006E288312031306181E281F286E28831695
:1010400003174403031D252826286E288312031343
:1010500010100F08C8000E08C7004708F000480825
:10106000F100F201F30100300A128A151A210A1266
:101070008A15730883120313A7007208A60071086B
:10108000A5007008A4006108A3006008A2005F0822
:10109000A1005E08A0000A128A158F220A128A1582
:1010A000831203132308BD002208BC002108BB00E3
:1010B0002008BA000A168A1153260A128A158312CA
:1010C00003133B0883160317C100831203133A0866
:1010D00083160317C000C4010130C5000B10831232
:1010E00003134608FF0045088A00440E8300FE0EE5
:1010F0007E0E090083160313220823040319812896
:101100008228882822082304031D872888288F28FE
:1011100020080A128A1103200A128A1519292208A6
:10112000093EA40023080318013E003EA500240840
:1011300084008317251C83130008A600840A000876
:10114000A700260827040319A628A728D9282208BB
:10115000093EA40023080318013E003EA500240810
:1011600084008317251C83130008A600840A000846
:10117000A7002208023EA80023080318013E003EF3
:10118000A900280884008317291C83130008AA00DB
:10119000840A0008AB002B08803AAC002708803A8C
:1011A0002C02031DD52826082A020318D828D9287E
:1011B000192983160313220884008317231C831321
:1011C0000008A400840A0008A5002208023EA60028
:1011D00023080318013E003EA70026088400831759
:1011E000271C831300082407A9002508A80003185A
:1011F000A80A801FFC28A803831603132808AA0046
:101200002908840083172A1C8313200880002208E1
:10121000023EA40023080318013E003EA500240856
:1012200084008317251C831301308007840A031868
:10123000800A0800F800780803191F29202934299A
:10124000F31F2329242934297009FA007109FB00AE
:101250007209FC007309FD00FA0A0319FB0A03195D
:10126000FC0A0319FD0A3C297308FD007208FC0002
:101270007108FB007008FA007308720471047004AE
:10128000031D432944294D290030F3000030F200AA
:101290000030F1000030F000CD299630F9005B29D4
:1012A0000130F90701300310FD0CFC0CFB0CFA0CAB
:1012B000FF3E031D5329FE307D05031D6029612972
:1012C00050297B290130F9070130FA070030031853
:1012D0000130FB07003003180130FC070030031811
:1012E0000130FD0701300310FD0CFC0CFB0CFA0C67
:1012F000FF3E031D7329FF307D05031D80298129D1
:1013000062298D290130F9020130F4000310FA0D31
:10131000FB0DFC0DFD0DF40B8629FC1B902991297A
:10132000972902307902031896299729822979187A
:101330009A299B29A329FF30FA05FF30FB057F304E
:10134000FC05FF30FD050310F90C7908F400F501E8
:10135000F601F70118300310F40DF50DF60DF70D39
:10136000FF3E031DAB297408FA047508FB047608D8
:10137000FC047708FD0478080319BF29C029C52992
:10138000F31FC329C429C529FD177D08F3007C0874
:10139000F2007B08F1007A08F000080083160317BA
:1013A0008901831603138610061416148B170B106D
:1013B0008B158312031390014A308316031797008D
:1013C000373096001B3095000030940017088316C4
:1013D0000313C60083160317160883160313C500EC
:1013E00083160317150883160313C4008316031707
:1013F000140883160313C3004930CA007430C900AF
:101400002430C8000030C7000A128A1559240A1275
:101410008A15831603134608831603179B00831649
:1014200003134508831603179A0083160313440811
:1014300083160317990083160313430883160317B3
:101440009800BF3083160313E0008030DF000030C7
:10145000DE000030DD004730AC000530AB00FC3072
:10146000AA000030A900831603171B088316031374
:10147000B000831603171A0883160313AF008316F0
:101480000317190883160313AE00831603171808F1
:1014900083160313AD000A128A113F200A128A151F
:1014A000831603132C08C6002B08C5002A08C400A5
:1014B0002908C3004930CA00F430C9002430C800EC
:1014C0000030C7000A128A1559240A128A15831699
:1014D00003134608E4004508E3004408E20043081B
:1014E000E1000A128A1181230A128A158316031356
:1014F000600883120313E100831603135F0883124D
:101500000313E000831603135E0883120313DF0046
:10151000831603135D0883120313DE000800831291
:1015200003132708B1008030B1052708A800280759
:10153000B800A61F9C2A9D2A9E2A38143808031931
:10154000A22AA32AB32A380A031DA72AA82AB02A46
:101550000030A7000030A6000030A5000030A40035
:10156000A617A701BB2A0030A7000030A600003054
:10157000A5000030A40023088039B1062308A80084
:101580002807B900A21FC52AC62AC72A3914390854
:101590000319CB2ACC2ADC2A390A031DD02AD12AE6
:1015A000D92A0030A3000030A2000030A100003092
:1015B000A000A217A301E42A0030A3000030A2007B
:1015C0000030A1000030A0002308220421042004E0
:1015D000031DEB2AEC2A032B0030A7000030A600E5
:1015E0000030A5000030A4008030A6047F30A7049E
:1015F0003108A7042708A3002608A2002508A10097
:101600002408A000582C3808031D072B082B112B89
:101610000030A3000030A2000030A1000030A00084
:10162000582C3808A800A9012908AB00390828025D
:10163000AA00031CAB032A087F3EB2002B08031844
:10164000013E003EB3002708B0002608AF00250881
:10165000AE002408AD000030A7000030A600003026
:10166000A5000030A4000030B7000030B600003004
:10167000B5000030B400B901852B39080319412B9E
:10168000422B622B0130A8000310AD0DAE0DAF0D43
:10169000B00DA80B442B0130A8000310A40DA50D1C
:1016A000A60DA70DA80B4D2BB71F572B582B592B49
:1016B00024140130A8000310B40DB50DB60DB70DFC
:1016C000A80B5B2B23083002031D702B22082F026E
:1016D000031D702B21082E02031D702B20082D02E4
:1016E000031C732B742B832B37172008AD022108A2
:1016F000031C210FAE022208031C220FAF02230895
:10170000031C230FB0020130B9071A303902031C41
:101710008A2B8B2B3D2B30082F042E042D0403190C
:10172000922B932BB22B3414B22B0130A800031050
:10173000A40DA50DA60DA70DA80B972BB71FA12BC8
:10174000A22BA32B24140130A8000310B40DB50D57
:10175000B60DB70DA80BA52BFF30B2070318B30ABF
:10176000FF30B307A61FB52BB62B952BB901B71FBA
:10177000BA2BBB2BD72BFF303405A800FF30350523
:10178000A900FF303605AA007F303705AB002B08D3
:101790002A04290428040319CE2BCF2BD22B013085
:1017A000B900D72B241CD52BD62BD72BCF2B390800
:1017B0000319DB2BDC2B0D2C0130A40700300318A0
:1017C0000130A507003003180130A60700300318C8
:1017D0000130A707271CED2BEE2B0D2C2408A800A9
:1017E0002508A9002608AA002708AB000130AC0094
:1017F0002B0DAB0CAA0CA90CA80CAC0BF82B2B08CE
:10180000A7002A08A6002908A5002808A40001307E
:10181000B2070318B30A0030B3073308803AFF0059
:1018200080307F02031D162CFF303202031C192C5E
:101830001A2C282CFF3083120313B2000030B3009F
:101840000030A7000030A6000030A5000030A40042
:10185000831203133308803AFF0080307F02031D98
:10186000332C013032020318362C372C442C8312CF
:101870000313B201B3010030A7000030A60000300E
:10188000A5000030A400B101831203133208B80090
:10189000381C4B2C4C2C4E2CA617502C7F30A605F8
:1018A0003808A8000310280CA7003108A704FA2A5A
:1018B0000800831603134A08D4008030D4054A0870
:1018C000CB004B07DB00C91F662C672C682C5B1410
:1018D0005B0803196C2C6D2C7D2C5B0A031D712C8D
:1018E000722C7A2C0030CA000030C9000030C800C9
:1018F0000030C700C917CA01852C0030CA0000306B
:10190000C9000030C8000030C70046088039D4063E
:101910004608CB004B07DC00C51F8F2C902C912C68
:101920005C145C080319952C962CA62C5C0A031DEC
:101930009A2C9B2CA32C0030C6000030C500003030
:10194000C4000030C300C517C601AE2C0030C6006D
:101950000030C5000030C4000030C3004608450414
:1019600044044304031DB52CB62CCD2C0030CA0012
:101970000030C9000030C8000030C7008030C90402
:101980007F30CA045408CA044A08C6004908C50082
:101990004808C4004708C300222E5B08031DD12C51
:1019A000D22CDB2C0030C6000030C5000030C40053
:1019B0000030C300222E5B08CB00CC014C08CE00C7
:1019C0005C084B02CD00031CCE034D087F3ED500C2
:1019D0004E080318013E003ED6004A08D3004908CD
:1019E000D2004808D1004708D0000030CA000030BB
:1019F000C9000030C8000030C7000030DA000030F5
:101A0000D9000030D8000030D700DC014F2D5C0831
:101A100003190B2D0C2D2C2D0130CB000310D00DF4
:101A2000D10DD20DD30DCB0B0E2D0130CB000310F9
:101A3000C70DC80DC90DCA0DCB0B172DDA1F212DEF
:101A4000222D232D47140130CB000310D70DD80DC4
:101A5000D90DDA0DCB0B252D46085302031D3A2D67
:101A600045085202031D3A2D44085102031D3A2D28
:101A700043085002031C3D2D3E2D4D2D5A1743089F
:101A8000D0024408031C440FD1024508031C450F33
:101A9000D2024608031C460FD3020130DC071A307D
:101AA0005C02031C542D552D072D5308520451047C
:101AB000500403195C2D5D2D7C2D57147C2D0130B5
:101AC000CB000310C70DC80DC90DCA0DCB0B612D7E
:101AD000DA1F6B2D6C2D6D2D47140130CB000310D8
:101AE000D70DD80DD90DDA0DCB0B6F2DFF30D507E3
:101AF0000318D60AFF30D607C91F7F2D802D5F2D12
:101B0000DC01DA1F842D852DA12DFF305705CB0078
:101B1000FF305805CC00FF305905CD007F305A0505
:101B2000CE004E084D044C044B040319982D992DFA
:101B30009C2D0130DC00A12D471C9F2DA02DA12D37
:101B4000992D5C080319A52DA62DD72D0130C707A7
:101B5000003003180130C807003003180130C907EE
:101B6000003003180130CA074A1CB72DB82DD72DF5
:101B70004708CB004808CC004908CD004A08CE00F1
:101B80000130CF004E0DCE0CCD0CCC0CCB0CCF0BBE
:101B9000C22D4E08CA004D08C9004C08C8004B08A9
:101BA000C7000130D5070318D60A0030D6075608FB
:101BB000803AFF0080307F02031DE02DFF30550288
:101BC000031CE32DE42DF22DFF3083160313D50003
:101BD0000030D6000030CA000030C9000030C80014
:101BE0000030C700831603135608803AFF00803088
:101BF0007F02031DFD2D013055020318002E012E1A
:101C00000E2E83160313D501D6010030CA00003012
:101C1000C9000030C8000030C700D4018316031388
:101C20005508DB005B1C152E162E182EC9171A2E10
:101C30007F30C9055B08CB0003104B0CCA00540869
:101C4000CA04C42C0800903084002830FF00831799
:101C50008001840AFF0B272E83160317B801B901F0
:101C6000BC01BD01BE01BF0183160317C401C5013C
:101C70000A168A11EA220A128A1583160317BA0174
:101C8000BB01552E043083160313D700E330D60072
:101C9000D60B482ED70B482E4D2E01308316031736
:101CA000BA070318BB0A0030BB074508031D592EAD
:101CB0005A2E632E00303B02643003193A02031C93
:101CC000622E632E422E45080319672E682E922E2F
:101CD0004008410403196D2E6E2E922E01304102F0
:101CE000C230031940020318762E772E922E3E083A
:101CF00083160313D6005607903E840083160317FD
:101D0000400883178000840A410880004008B80713
:101D10000318B90A4108B9070130BC070318BD0A06
:101D20000030BD074E3083160313D700EA30D600CB
:101D3000D60B982ED70B982E000001308316031770
:101D4000BE070318BF0A0030BF073F08803AFF00F4
:101D500080307F02031DAE2E14303E02031CB12ED4
:101D6000B22E342E831603173C083D040319B92EF6
:101D7000BA2EE22E3D0883160313A1008316031723
:101D80003C0883160313A000831603173908831633
:101D90000313A30083160317380883160313A20046
:101DA0000A128A11AF270A128A1583160313210813
:101DB00083160317C3008316031320088316031723
:101DC000C200E42EC201C3014308803AFF00813003
:101DD0007F02031DED2E5F304202031CF02EF12E18
:101DE000F72E5E3083160317C2000130C30083163E
:101DF0000313A601A60A02300A168A110C240A123D
:101E00008A157B3083160313A6009030A7000A16AC
:101E10008A11E7240A128A1583160317420843041D
:101E2000031D132F142F402F83160313A601A60A98
:101E300002300A168A110C240A128A15E73083161A
:101E40000313A6009030A7000A168A11E7240A128D
:101E50008A15673083160313A1009030A2000A167A
:101E60008A116D240A128A15F43083160313A60012
:101E70000130A7000A168A11FF220A128A15FF2FC5
:101E8000C63083160313C400C730C5009030C600A7
:101E900083160317430883160313C800831603171A
:101EA000420883160313C7000A168A11BE230A12BA
:101EB0008A1583160313A601A60A02300A168A1190
:101EC0000C240A128A15C63083160313A6000130AB
:101ED000A7000A168A11E7240A128A15C63083164B
:101EE0000313A1000130A2000A168A116D240A1200
:101EF0008A15783083160313A1009030A2000A16C9
:101F00008A116D240A128A15831603174308803A32
:101F1000FF0081307F02031D8F2F7D304202031CA2
:101F2000922F932FB42F83160313A601A60A023013
:101F30000A168A110C240A128A158F30831603138D
:101F4000A6009030A7000A168A11E7240A128A1503
:101F50002C3083160313A6000130A7000A168A113D
:101F6000FF220A128A15FF2F831603174308803AAF
:101F7000FF0080307F02031DBF2F0A30420203188A
:101F8000C22FC32FD42F643083160313A600003052
:101F9000A7006430A8000030A90003300A168A1197
:101FA000A3240A128A15FF2F831603174308803AC9
:101FB000FF0080307F02031DDF2F1E304202031816
:101FC000E22FE32FF42FC83083160313A60000304E
:101FD000A7006430A8000030A90002300A168A1158
:101FE000A3240A128A15FF2F963083160313A60026
:101FF0000030A7000A168A11FF220A128A1508006B
:10200000573465346C3463346F346D346534203444
:1020100074346F3420347434683465342034483474
:1020200043342D3453345234303434342034443433
:1020300069347334743461346E34633465342034F9
:102040004D346534613473347534723465346D34B1
:1020500065346E34743420345334793473347434C6
:1020600065346D340D340A340034503472346534C0
:1020700073347334203474346834653420346234F7
:102080007534743474346F346E34203474346F3473
:102090002034733474346134723474342F347034B3
:1020A0006134753473346534203474346834653481
:1020B00020346D346534613473347534723465346E
:1020C0006D3465346E3474340D340A340034453460
:1020D000723472346F3472343A3420344E346F3484
:1020E0002034723465346134643469346E34673456
:1020F0000D340A3400342034203420342034203489
:10210000203420342034203420342034203420342F
:10211000203420342034203420342034003444341B
:1021200069347334743461346E34633465343A34EE
:1021300020344D34613478342034723461346E3458
:10214000673465340034423454344C3420345634CB
:1021500049342034443449344534553420344B34E4
:102160004834493445344E3400344E346734753481
:10217000793465346E342034483475346E346734C1
:102180002034443475346F346E346734003444344E
:1021900069347334743461346E3463346534203498
:1021A0003D34203425346434203463346D340034B9
:1021B00048346F3461346E346734203454347234AC
:1021C00075346E346734203441346E3400344E3408
:1021D0006F342034723465346134643469346E345D
:0421E000673400342C
:10220000FF1B0A2983137F1883170008840A031908
:10221000FF0A08007F087F398A000408840A03192E
:10222000FF0A82008316031318154D309900181207
:10223000831203139817831603130713871798162F
:10224000831203131816080083160313141929297F
:102250002A29242911081F39031D2F29302924294F
:10226000080028308312031394008316031391018E
:1022700094011D3093008715071608000034FC34C4
:1022800005344734003400344034413408340134D8
:10229000FB30831603138705FB3083120313870576
:1022A00008000A168A1124210A168A1183160313BC
:1022B000111508000A168A1124210A168A1183169C
:1022C000031311140800043083160313880001302F
:1022D000831203138800080064008001840A040646
:1022E0000319003404066D29BF30831603138805D3
:1022F000831203130817080000308316031398187D
:1023000001300800BF308312031388050800FB303A
:1023100083120313870508008312031308170800AC
:082320008312031307150800E6
:1025380083160313A71BA12AA22AA32AAE2A2609B7
:10254800A8002709A900A80A0319A90A2808A600AB
:102558002908A70008007E088A007F0882000A165A
:102568008A11AF220A168A118000840A04087D069F
:1025780003190034FF0A0319FE0AB32A831603134A
:10258800A0000A168A1124210A168A118316031339
:1025980020088312031393008C1DD32AD42AD02A2F
:1025A8008C11080083160313A0000A168A117C21D7
:1025B8000A168A11003A0319E22AE32AD92A83164D
:1025C80003132008831203139900080083120313CE
:1025D8008F018E018610F02AF12AF22A8312031342
:1025E8008614093083160313A000A00BF92A83125E
:1025F8000313861008000A168A1182210A168A1106
:10260800831603132708A1002608A0000A168A11BA
:1026180078230A168A110A168A118C210A168A1139
:10262800080083160313A3008312031351088316AB
:102638000313A304230804380A168A1135230A163B
:102648008A11831603132308FB390A168A113523C6
:102658000A168A11313083160313A200A20B322BFB
:10266800080083160313A1000A168A115A210A16B4
:102678008A118312031350080A168A11C2220A16F5
:102688008A11831603132108831203135C040A16A4
:102698008A11C2220A168A110A168A1151210A16AB
:1026A8008A11080083160313A50083120313D101AE
:1026B800831603132508F0390A168A1115230A16FA
:1026C8008A11831603132508A40003300310A40DF0
:1026D800FF3E031D6A2B0310240DF0390A168A11D8
:1026E80015230A168A11080083160313A401A501ED
:1026F800902B043083160313A300E330A200A20B2F
:10270800832BA30B832B882B013083160313A40779
:102718000318A50A0030A50721082502031D962BDA
:1027280020082402031C992B9A2B7D2B0800831662
:102738000313A500013083120313D100831603137A
:102748002508F0390A168A1115230A168A118316E4
:1027580003132508A40003300310A40DFF3E031D36
:10276800B02B0310240DF0390A168A1115230A1606
:102778008A110800C73083160313CA004408CB0027
:102788000130CC00CD01CE01D401D501CB30BD0044
:102798000030BE004508BF004608C000CA30C1006E
:1027A8000A168A113C240A168A11831603134D0847
:1027B8004407C9004908840083178001080083166C
:1027C8000313A800A401A5012008A200A301220860
:1027D800A6002308A700281CF22BF32BF92B2608A8
:1027E800A4070318A50A2708A50701300310A60D9A
:1027F800A70DFF3E031DFA2B0310A80C2808031D84
:10280800062C072CEF2B2508A1002408A00008009F
:1028180083160313A700302C2608BF3E0A168A1118
:1028280056230A168A113B2C2608933E0A168A114B
:1028380056230A168A113B2C2608D33E0A168A11FB
:1028480056230A168A113B2C26087F3E0A168A113F
:1028580056230A168A113B2C2708023A0319102C12
:10286800013A0319182C073A0319202C282C0800C0
:10287800831603133F08C2004008C300522C831676
:1028880003133D08AD003E08AE00C230AF0041085A
:10289800B0000A128A1171260A168A1183160313C8
:1028A800430883120313FF008316031342088400AE
:1028B800831203130A168A1100210A168A11003A94
:1028C800031D672C682C432C83160313BD01BE011E
:1028D80008008C2C83160313220883120313FF00AD
:1028E8008316031321088400831203130A168A111E
:1028F80000210A168A110A168A11D6220A168A1186
:10290800013083160313A1070318A20A0030A20797
:1029180083160313220883120313FF00831603137D
:1029280021088400831203130A168A1100210A164B
:102938008A11003A031DA12CA22C6E2C08008316C4
:102948000313AC00AD01E02C0A168A1182210A1685
:102958008A11831603132708A1002608A0000A1667
:102968008A1178230A168A110A168A118C210A16E6
:102978008A11831603132C08FF3EAA00FF300318A0
:102988000030AB002B08803A803C031DCD2C2A0870
:102998002D020318D02CD12CDC2C83160313290804
:1029A800A1002808A0000A168A1178230A168A119D
:1029B800013083160313AD072C082D02031CE52CE8
:1029C800E62CA82C080083160313AB01AC01182DC4
:1029D800831603132B082607A9002708A800031845
:1029E800A80AAB1FF82CA803831603132808AA000B
:1029F8002A0883120313FF0083160313290884008F
:102A0800831203130A168A1100210A168A110A165C
:102A18008A119B230A168A11013083160313AB0708
:102A28000318AC0A0030AC072B082607A9002708B2
:102A3800A8000318A80AAB1F222DA80383160313A6
:102A48002808AA002A0883120313FF008316031319
:102A580029088400831203130A168A1100210A1612
:102A68008A11003A031D392D3A2DEC2C08008316E3
:102A78000313A501A31F412D422D492DA209A30926
:102A8800A20A0319A30A0130A500A11F4C2D4D2D40
:102A9800522DA009A109A00A0319A10A200821049E
:102AA8000319572D582D852D0130A400642D0130B0
:102AB8000310A00DA10DFF3E031D5C2D0130A407DE
:102AC800A11F672D682D5B2D21082302031D6E2D84
:102AD80020082202031C712D722D782D2008A202D5
:102AE8002108031CA303A30201300310A10CA00CAE
:102AF800FF3E031D792D0130A402031D842D852D71
:102B0800682D25080319892D8A2D8F2DA209A3095F
:102B1800A20A0319A30A2308A1002208A00008009A
:102B280083120313080883160313DA001030DA053A
:102B38005A088312031352060319A32DA42DED2D51
:102B48004E3083160313D900EA30D800D80BAA2DCB
:102B5800D90BAA2D00008312031308088316031348
:102B6800DA001030DA055A088312031352060319E3
:102B7800BE2DBF2DED2D831603135A0883120313A0
:102B8800D200831603135A08031DCB2DCC2DED2D2F
:102B98008312031353080319D22DD42D0130D52DD8
:102BA8000030D3000A128A1523260A168A118312C6
:102BB800031353080319E12DE22DE82D0A168A1193
:102BC80087210A168A11ED2D0A168A1190210A16F4
:102BD8008A11080083160313A501A11FF42DF52DF2
:102BE800FC2DA009A109A00A0319A10A0130A5001A
:102BF800A31FFF2D002E072EA209A309A20A03195D
:102C0800A30A0130A506A601A7012008210403197B
:102C18000E2E0F2E442E0130A4001B2E013003105F
:102C2800A00DA10DFF3E031D132E0130A407A11F07
:102C38001E2E1F2E122E01300310A60DA70DFF3ECB
:102C4800031D202E21082302031D2C2E20082202FA
:102C5800031C2F2E302E372E2008A2022108031C19
:102C6800A303A302261401300310A10CA00CFF3EFD
:102C7800031D382E0130A402031D432E442E1F2E9F
:102C880025080319482E492E4E2EA609A709A60A7B
:102C98000319A70A2708A1002608A00008000310A6
:102CA800831203133C0D3D0DC3004308031D5D2E25
:102CB8005E2E672E0030BD000030BC000030BB0027
:102CC8000030BA00C82E3A08BE003B08BF003C08D6
:102CD800C0003D08C1001F300310C10CC00CBF0C60
:102CE800BE0CFF3E031D702E3E08C200BC17FF300D
:102CF800BA05FF30BB05FF30BC050030BD05963076
:102D0800C302C31F882E892EA12E4308803A973EFE
:102D180003188F2E902E912E5E2E01300310BD0CBD
:102D2800BC0CBB0CBA0CFF3E031D922E0130C3072E
:102D3800031D9F2EA02E912EB82E20304302031C77
:102D4800A62EA72EB32E5E2E0130BE000310BA0D9C
:102D5800BB0DBC0DBD0DBE0BAA2E0130C30243082E
:102D6800031DB72EB82EA82E42080319BC2EBD2E5F
:102D7800C82EBA09BB09BC09BD09BA0A0319BB0A9E
:102D88000319BC0A0319BD0A08000A128A15CE21C4
:102D98000A168A110A168A1163210A168A110A1656
:102DA8008A1174210A168A110A168A1148210A16EC
:102DB8008A110A168A1112210A168A1100308316FE
:102DC8000313A1009030A2000A168A116D240A1676
:102DD8008A11353083160313A1009030A2000A1619
:102DE8008A116D240A168A110A168A1131210A16C7
:102DF8008A114E300A168A1163270A168A110A1296
:102E08008A11F3270A168A1183160313A601A60A44
:102E180001300A168A110C240A168A11D830831632
:102E28000313A6009030A7000A168A11E7240A1691
:102E38008A1183160313A60102300A168A110C247C
:102E48000A168A11B53083160313A6009030A7001E
:102E58000A168A11E7240A168A111F3083160313EB
:102E6800EF007130EE001D30ED00ED0B392FEE0B49
:102E7800392FEF0B392F402F0A128A11F3270A1620
:102E88008A1183160313A601A60A01300A168A11AD
:102E98000C240A168A11A33083160313A600903057
:102EA800A7000A168A11E7240A168A110A168A1137
:102EB80094250A168A115A2F0A128A111028831685
:102EC8000313A800280883120313D00000300A1641
:102ED8008A1135230A168A11753083160313A70041
:102EE800E030A600A60B762FA70B762F0000033044
:102EF8000A168A1156230A168A11143083160313E8
:102F0800A7007930A600A60B872FA70B872F0330C1
:102F18000A168A1156230A168A11143083160313C7
:102F2800A7007930A600A60B972FA70B972F033081
:102F38000A168A1156230A168A11143083160313A7
:102F4800A7007930A600A60BA72FA70BA72F023042
:102F58000A168A1156230A168A1114308316031387
:102F6800A7007930A600A60BB72FA70BB72F2830DC
:102F78000A168A1156230A168A11C33083160313B8
:102F8800A700CC30A600A60BC72FA70BC72F0000A1
:102F98000C300A168A1156230A168A11C330831672
:102FA8000313A700CC30A600A60BD82FA70BD82F49
:102FB800000001300A168A1156230A168A11C330F6
:102FC80083160313A700CC30A600A60BE92FA70B86
:102FD800E92F000006300A168A1156230A168A11AC
:102FE800C33083160313A700CC30A600A60BFA2F14
:082FF800A70BFA2F00000800EE
:04400E00F220FF3F5E
:00000001FF
